{
  "contractName": "Election",
  "abi": [
    {
      "inputs": [],
      "payable": false,
      "stateMutability": "nonpayable",
      "type": "constructor"
    },
    {
      "anonymous": false,
      "inputs": [
        {
          "indexed": false,
          "internalType": "uint256",
          "name": "id",
          "type": "uint256"
        },
        {
          "indexed": false,
          "internalType": "string",
          "name": "name",
          "type": "string"
        },
        {
          "indexed": false,
          "internalType": "string",
          "name": "party",
          "type": "string"
        }
      ],
      "name": "CandidateRegistered",
      "type": "event"
    },
    {
      "anonymous": false,
      "inputs": [
        {
          "indexed": false,
          "internalType": "uint256",
          "name": "targetId",
          "type": "uint256"
        }
      ],
      "name": "Voted",
      "type": "event"
    },
    {
      "constant": true,
      "inputs": [
        {
          "internalType": "uint256",
          "name": "",
          "type": "uint256"
        }
      ],
      "name": "candidates",
      "outputs": [
        {
          "internalType": "uint256",
          "name": "id",
          "type": "uint256"
        },
        {
          "internalType": "uint256",
          "name": "votes",
          "type": "uint256"
        },
        {
          "internalType": "string",
          "name": "name",
          "type": "string"
        },
        {
          "internalType": "string",
          "name": "party",
          "type": "string"
        }
      ],
      "payable": false,
      "stateMutability": "view",
      "type": "function"
    },
    {
      "constant": true,
      "inputs": [],
      "name": "candidatesCount",
      "outputs": [
        {
          "internalType": "uint256",
          "name": "",
          "type": "uint256"
        }
      ],
      "payable": false,
      "stateMutability": "view",
      "type": "function"
    },
    {
      "constant": true,
      "inputs": [],
      "name": "name",
      "outputs": [
        {
          "internalType": "string",
          "name": "",
          "type": "string"
        }
      ],
      "payable": false,
      "stateMutability": "view",
      "type": "function"
    },
    {
      "constant": true,
      "inputs": [],
      "name": "owner",
      "outputs": [
        {
          "internalType": "address",
          "name": "",
          "type": "address"
        }
      ],
      "payable": false,
      "stateMutability": "view",
      "type": "function"
    },
    {
      "constant": false,
      "inputs": [
        {
          "internalType": "string",
          "name": "_name",
          "type": "string"
        },
        {
          "internalType": "string",
          "name": "_party",
          "type": "string"
        }
      ],
      "name": "registerCandidate",
      "outputs": [],
      "payable": false,
      "stateMutability": "nonpayable",
      "type": "function"
    },
    {
      "constant": false,
      "inputs": [
        {
          "internalType": "uint256",
          "name": "_id",
          "type": "uint256"
        }
      ],
      "name": "vote",
      "outputs": [],
      "payable": false,
      "stateMutability": "nonpayable",
      "type": "function"
    },
    {
      "constant": true,
      "inputs": [
        {
          "internalType": "uint256",
          "name": "_id",
          "type": "uint256"
        }
      ],
      "name": "getCandidate",
      "outputs": [
        {
          "internalType": "string",
          "name": "",
          "type": "string"
        },
        {
          "internalType": "uint256",
          "name": "",
          "type": "uint256"
        }
      ],
      "payable": false,
      "stateMutability": "view",
      "type": "function"
    }
  ],
  "bytecode": "0x6080604052600060015534801561001557600080fd5b5033600260006101000a81548173ffffffffffffffffffffffffffffffffffffffff021916908373ffffffffffffffffffffffffffffffffffffffff1602179055506040518060400160405280600881526020017f456c656374696f6e000000000000000000000000000000000000000000000000815250600090805190602001906100a29291906100a8565b5061014d565b828054600181600116156101000203166002900490600052602060002090601f016020900481019282601f106100e957805160ff1916838001178555610117565b82800160010185558215610117579182015b828111156101165782518255916020019190600101906100fb565b5b5090506101249190610128565b5090565b61014a91905b8082111561014657600081600090555060010161012e565b5090565b90565b610c7a8061015c6000396000f3fe608060405234801561001057600080fd5b506004361061007d5760003560e01c80632d35a8a21161005b5780632d35a8a2146102855780633477ee2e146102a357806335b8e820146103c45780638da5cb5b146104725761007d565b80630121b93f1461008257806306fdde03146100b05780630dbce4dd14610133575b600080fd5b6100ae6004803603602081101561009857600080fd5b81019080803590602001909291905050506104bc565b005b6100b861051c565b6040518080602001828103825283818151815260200191508051906020019080838360005b838110156100f85780820151818401526020810190506100dd565b50505050905090810190601f1680156101255780820380516001836020036101000a031916815260200191505b509250505060405180910390f35b6102836004803603604081101561014957600080fd5b810190808035906020019064010000000081111561016657600080fd5b82018360208201111561017857600080fd5b8035906020019184600183028401116401000000008311171561019a57600080fd5b91908080601f016020809104026020016040519081016040528093929190818152602001838380828437600081840152601f19601f820116905080830192505050505050509192919290803590602001906401000000008111156101fd57600080fd5b82018360208201111561020f57600080fd5b8035906020019184600183028401116401000000008311171561023157600080fd5b91908080601f016020809104026020016040519081016040528093929190818152602001838380828437600081840152601f19601f8201169050808301925050505050505091929192905050506105ba565b005b61028d61082f565b6040518082815260200191505060405180910390f35b6102cf600480360360208110156102b957600080fd5b8101908080359060200190929190505050610835565b604051808581526020018481526020018060200180602001838103835285818151815260200191508051906020019080838360005b8381101561031f578082015181840152602081019050610304565b50505050905090810190601f16801561034c5780820380516001836020036101000a031916815260200191505b50838103825284818151815260200191508051906020019080838360005b8381101561038557808201518184015260208101905061036a565b50505050905090810190601f1680156103b25780820380516001836020036101000a031916815260200191505b50965050505050505060405180910390f35b6103f0600480360360208110156103da57600080fd5b8101908080359060200190929190505050610995565b6040518080602001838152602001828103825284818151815260200191508051906020019080838360005b8381101561043657808201518184015260208101905061041b565b50505050905090810190601f1680156104635780820380516001836020036101000a031916815260200191505b50935050505060405180910390f35b61047a610b30565b604051808273ffffffffffffffffffffffffffffffffffffffff1673ffffffffffffffffffffffffffffffffffffffff16815260200191505060405180910390f35b60036000828152602001908152602001600020600101600081548092919060010191905055507f7f511e347bf51eed3be100b3194247d5207f05f3b33de7d31e3e8ee73199a049816040518082815260200191505060405180910390a150565b60008054600181600116156101000203166002900480601f0160208091040260200160405190810160405280929190818152602001828054600181600116156101000203166002900480156105b25780601f10610587576101008083540402835291602001916105b2565b820191906000526020600020905b81548152906001019060200180831161059557829003601f168201915b505050505081565b600260009054906101000a900473ffffffffffffffffffffffffffffffffffffffff1673ffffffffffffffffffffffffffffffffffffffff163373ffffffffffffffffffffffffffffffffffffffff1614610660576040517f08c379a0000000000000000000000000000000000000000000000000000000008152600401808060200182810382526022815260200180610c246022913960400191505060405180910390fd5b600082511161066e57600080fd5b600081511161067c57600080fd5b600160008154809291906001019190505550604051806080016040528060015481526020016000815260200183815260200182815250600360006001548152602001908152602001600020600082015181600001556020820151816001015560408201518160020190805190602001906106f7929190610b56565b506060820151816003019080519060200190610714929190610b56565b509050507f0ec1a365aeeec255796bf50d7a2a8f24d0d5f5c6ada0167b6c647428d91645826001548383604051808481526020018060200180602001838103835285818151815260200191508051906020019080838360005b8381101561078857808201518184015260208101905061076d565b50505050905090810190601f1680156107b55780820380516001836020036101000a031916815260200191505b50838103825284818151815260200191508051906020019080838360005b838110156107ee5780820151818401526020810190506107d3565b50505050905090810190601f16801561081b5780820380516001836020036101000a031916815260200191505b509550505050505060405180910390a15050565b60015481565b6003602052806000526040600020600091509050806000015490806001015490806002018054600181600116156101000203166002900480601f0160208091040260200160405190810160405280929190818152602001828054600181600116156101000203166002900480156108ed5780601f106108c2576101008083540402835291602001916108ed565b820191906000526020600020905b8154815290600101906020018083116108d057829003601f168201915b505050505090806003018054600181600116156101000203166002900480601f01602080910402602001604051908101604052809291908181526020018280546001816001161561010002031660029004801561098b5780601f106109605761010080835404028352916020019161098b565b820191906000526020600020905b81548152906001019060200180831161096e57829003601f168201915b5050505050905084565b606060006109a1610bd6565b600360008581526020019081526020016000206040518060800160405290816000820154815260200160018201548152602001600282018054600181600116156101000203166002900480601f016020809104026020016040519081016040528092919081815260200182805460018160011615610100020316600290048015610a6c5780601f10610a4157610100808354040283529160200191610a6c565b820191906000526020600020905b815481529060010190602001808311610a4f57829003601f168201915b50505050508152602001600382018054600181600116156101000203166002900480601f016020809104026020016040519081016040528092919081815260200182805460018160011615610100020316600290048015610b0e5780601f10610ae357610100808354040283529160200191610b0e565b820191906000526020600020905b815481529060010190602001808311610af157829003601f168201915b5050505050815250509050806040015181602001518191509250925050915091565b600260009054906101000a900473ffffffffffffffffffffffffffffffffffffffff1681565b828054600181600116156101000203166002900490600052602060002090601f016020900481019282601f10610b9757805160ff1916838001178555610bc5565b82800160010185558215610bc5579182015b82811115610bc4578251825591602001919060010190610ba9565b5b509050610bd29190610bfe565b5090565b6040518060800160405280600081526020016000815260200160608152602001606081525090565b610c2091905b80821115610c1c576000816000905550600101610c04565b5090565b9056fe4f6e6c79206f776e65722063616e20706572666f726d207468697320616374696f6ea265627a7a723158202873ec93f7ef6f27e8ff727d74f44949adacd3b7b20d242170b7f55cf194028964736f6c63430005100032",
  "source": "pragma solidity ^0.5.16;\r\n\r\ncontract Election {\r\n\r\n    // public variables\r\n    string public name;\r\n    uint public candidatesCount = 0;\r\n    address public owner;\r\n    mapping(uint => Candidate) public candidates;\r\n\r\n    struct Candidate {\r\n        uint id;\r\n        uint votes;\r\n        string name;\r\n        string party;\r\n    }\r\n\r\n    event CandidateRegistered (\r\n        uint id,\r\n        string name,\r\n        string party\r\n    );\r\n\r\n    event Voted (\r\n        uint targetId\r\n    );\r\n\r\n    modifier onlyOwner() {\r\n        require(msg.sender == owner, \"Only owner can perform this action\");\r\n        _;\r\n    }\r\n\r\n    function registerCandidate(string memory _name, string memory _party) public onlyOwner {\r\n\r\n        // check for valid name and party name\r\n        require(bytes(_name).length > 0);\r\n        require(bytes(_party).length > 0);\r\n        candidatesCount ++;\r\n\r\n        // add to list of candidates\r\n        candidates[candidatesCount] = Candidate(candidatesCount, 0, _name, _party);\r\n\r\n        // trigger event\r\n        emit CandidateRegistered(candidatesCount, _name, _party);\r\n    }\r\n\r\n    function vote(uint _id) public {\r\n\r\n        candidates[_id].votes ++;\r\n\r\n        // trigger event\r\n        emit Voted(_id);\r\n    }\r\n\r\n    function getCandidate(uint _id) public view returns (string memory, uint) {\r\n\r\n        Candidate memory c = candidates[_id];\r\n        return (c.name, c.votes);\r\n    }\r\n\r\n    constructor () public {\r\n        owner = msg.sender;\r\n        name = \"Election\";\r\n    }\r\n}",
  "sourcePath": "C:\\Users\\46707\\Documents\\Solidity\\election\\src\\contracts\\Election.sol",
  "compiler": {
    "name": "solc",
    "version": "0.5.16+commit.9c3226ce.Emscripten.clang"
  },
  "schemaVersion": "3.4.16",
  "updatedAt": "2025-02-01T14:32:43.163Z",
  "networkType": "ethereum",
  "devdoc": {
    "methods": {}
  },
  "userdoc": {
    "methods": {}
  }
}