{
  "contractName": "Election",
  "abi": [
    {
      "inputs": [],
      "payable": false,
      "stateMutability": "nonpayable",
      "type": "constructor"
    },
    {
      "anonymous": false,
      "inputs": [
        {
          "indexed": false,
          "internalType": "uint256",
          "name": "id",
          "type": "uint256"
        },
        {
          "indexed": false,
          "internalType": "string",
          "name": "name",
          "type": "string"
        },
        {
          "indexed": false,
          "internalType": "string",
          "name": "party",
          "type": "string"
        }
      ],
      "name": "CandidateRegistered",
      "type": "event"
    },
    {
      "anonymous": false,
      "inputs": [
        {
          "indexed": false,
          "internalType": "uint256",
          "name": "targetId",
          "type": "uint256"
        }
      ],
      "name": "Voted",
      "type": "event"
    },
    {
      "constant": true,
      "inputs": [
        {
          "internalType": "uint256",
          "name": "",
          "type": "uint256"
        }
      ],
      "name": "candidates",
      "outputs": [
        {
          "internalType": "uint256",
          "name": "id",
          "type": "uint256"
        },
        {
          "internalType": "uint256",
          "name": "votes",
          "type": "uint256"
        },
        {
          "internalType": "string",
          "name": "name",
          "type": "string"
        },
        {
          "internalType": "string",
          "name": "party",
          "type": "string"
        }
      ],
      "payable": false,
      "stateMutability": "view",
      "type": "function"
    },
    {
      "constant": true,
      "inputs": [],
      "name": "candidatesCount",
      "outputs": [
        {
          "internalType": "uint256",
          "name": "",
          "type": "uint256"
        }
      ],
      "payable": false,
      "stateMutability": "view",
      "type": "function"
    },
    {
      "constant": true,
      "inputs": [],
      "name": "electionStarted",
      "outputs": [
        {
          "internalType": "bool",
          "name": "",
          "type": "bool"
        }
      ],
      "payable": false,
      "stateMutability": "view",
      "type": "function"
    },
    {
      "constant": true,
      "inputs": [],
      "name": "name",
      "outputs": [
        {
          "internalType": "string",
          "name": "",
          "type": "string"
        }
      ],
      "payable": false,
      "stateMutability": "view",
      "type": "function"
    },
    {
      "constant": true,
      "inputs": [],
      "name": "owner",
      "outputs": [
        {
          "internalType": "address",
          "name": "",
          "type": "address"
        }
      ],
      "payable": false,
      "stateMutability": "view",
      "type": "function"
    },
    {
      "constant": false,
      "inputs": [
        {
          "internalType": "string",
          "name": "_name",
          "type": "string"
        },
        {
          "internalType": "string",
          "name": "_party",
          "type": "string"
        }
      ],
      "name": "registerCandidate",
      "outputs": [],
      "payable": false,
      "stateMutability": "nonpayable",
      "type": "function"
    },
    {
      "constant": false,
      "inputs": [
        {
          "internalType": "uint256",
          "name": "_id",
          "type": "uint256"
        }
      ],
      "name": "vote",
      "outputs": [],
      "payable": false,
      "stateMutability": "nonpayable",
      "type": "function"
    },
    {
      "constant": true,
      "inputs": [
        {
          "internalType": "uint256",
          "name": "_id",
          "type": "uint256"
        }
      ],
      "name": "getCandidate",
      "outputs": [
        {
          "internalType": "string",
          "name": "",
          "type": "string"
        },
        {
          "internalType": "uint256",
          "name": "",
          "type": "uint256"
        }
      ],
      "payable": false,
      "stateMutability": "view",
      "type": "function"
    },
    {
      "constant": false,
      "inputs": [],
      "name": "clearCandidates",
      "outputs": [],
      "payable": false,
      "stateMutability": "nonpayable",
      "type": "function"
    },
    {
      "constant": false,
      "inputs": [],
      "name": "startElection",
      "outputs": [],
      "payable": false,
      "stateMutability": "nonpayable",
      "type": "function"
    },
    {
      "constant": false,
      "inputs": [],
      "name": "endElection",
      "outputs": [],
      "payable": false,
      "stateMutability": "nonpayable",
      "type": "function"
    }
  ],
  "bytecode": "0x608060405260006001556001600260146101000a81548160ff02191690831515021790555034801561003057600080fd5b5033600260006101000a81548173ffffffffffffffffffffffffffffffffffffffff021916908373ffffffffffffffffffffffffffffffffffffffff1602179055506040518060400160405280600881526020017f456c656374696f6e000000000000000000000000000000000000000000000000815250600090805190602001906100bd9291906100c3565b50610168565b828054600181600116156101000203166002900490600052602060002090601f016020900481019282601f1061010457805160ff1916838001178555610132565b82800160010185558215610132579182015b82811115610131578251825591602001919060010190610116565b5b50905061013f9190610143565b5090565b61016591905b80821115610161576000816000905550600101610149565b5090565b90565b610ff3806101776000396000f3fe608060405234801561001057600080fd5b50600436106100a95760003560e01c806335b8e8201161007157806335b8e820146103f057806359f784681461049e5780635c179f7e146104a857806362d73eb8146104b25780638da5cb5b146104bc578063d5346da114610506576100a9565b80630121b93f146100ae57806306fdde03146100dc5780630dbce4dd1461015f5780632d35a8a2146102b15780633477ee2e146102cf575b600080fd5b6100da600480360360208110156100c457600080fd5b8101908080359060200190929190505050610528565b005b6100e4610608565b6040518080602001828103825283818151815260200191508051906020019080838360005b83811015610124578082015181840152602081019050610109565b50505050905090810190601f1680156101515780820380516001836020036101000a031916815260200191505b509250505060405180910390f35b6102af6004803603604081101561017557600080fd5b810190808035906020019064010000000081111561019257600080fd5b8201836020820111156101a457600080fd5b803590602001918460018302840111640100000000831117156101c657600080fd5b91908080601f016020809104026020016040519081016040528093929190818152602001838380828437600081840152601f19601f8201169050808301925050505050505091929192908035906020019064010000000081111561022957600080fd5b82018360208201111561023b57600080fd5b8035906020019184600183028401116401000000008311171561025d57600080fd5b91908080601f016020809104026020016040519081016040528093929190818152602001838380828437600081840152601f19601f8201169050808301925050505050505091929192905050506106a6565b005b6102b9610a52565b6040518082815260200191505060405180910390f35b6102fb600480360360208110156102e557600080fd5b8101908080359060200190929190505050610a58565b604051808581526020018481526020018060200180602001838103835285818151815260200191508051906020019080838360005b8381101561034b578082015181840152602081019050610330565b50505050905090810190601f1680156103785780820380516001836020036101000a031916815260200191505b50838103825284818151815260200191508051906020019080838360005b838110156103b1578082015181840152602081019050610396565b50505050905090810190601f1680156103de5780820380516001836020036101000a031916815260200191505b50965050505050505060405180910390f35b61041c6004803603602081101561040657600080fd5b8101908080359060200190929190505050610bb8565b6040518080602001838152602001828103825284818151815260200191508051906020019080838360005b83811015610462578082015181840152602081019050610447565b50505050905090810190601f16801561048f5780820380516001836020036101000a031916815260200191505b50935050505060405180910390f35b6104a6610d6d565b005b6104b0610d92565b005b6104ba610e00565b005b6104c4610e1d565b604051808273ffffffffffffffffffffffffffffffffffffffff1673ffffffffffffffffffffffffffffffffffffffff16815260200191505060405180910390f35b61050e610e43565b604051808215151515815260200191505060405180910390f35b600260149054906101000a900460ff1661058d576040517f08c379a000000000000000000000000000000000000000000000000000000000815260040180806020018281038252602d815260200180610f92602d913960400191505060405180910390fd5b6000811015801561059f575060015481105b6105a857600080fd5b60036000828152602001908152602001600020600101600081548092919060010191905055507f7f511e347bf51eed3be100b3194247d5207f05f3b33de7d31e3e8ee73199a049816040518082815260200191505060405180910390a150565b60008054600181600116156101000203166002900480601f01602080910402602001604051908101604052809291908181526020018280546001816001161561010002031660029004801561069e5780601f106106735761010080835404028352916020019161069e565b820191906000526020600020905b81548152906001019060200180831161068157829003601f168201915b505050505081565b600260149054906101000a900460ff1661070b576040517f08c379a000000000000000000000000000000000000000000000000000000000815260040180806020018281038252602d815260200180610f92602d913960400191505060405180910390fd5b600260009054906101000a900473ffffffffffffffffffffffffffffffffffffffff1673ffffffffffffffffffffffffffffffffffffffff163373ffffffffffffffffffffffffffffffffffffffff16146107b1576040517f08c379a0000000000000000000000000000000000000000000000000000000008152600401808060200182810382526026815260200180610f6c6026913960400191505060405180910390fd5b6000825111610828576040517f08c379a00000000000000000000000000000000000000000000000000000000081526004018080602001828103825260178152602001807f43616e646964617465206e616d6520726571756972656400000000000000000081525060200191505060405180910390fd5b600081511161089f576040517f08c379a00000000000000000000000000000000000000000000000000000000081526004018080602001828103825260138152602001807f5061727479206e616d652072657175697265640000000000000000000000000081525060200191505060405180910390fd5b60405180608001604052806001548152602001600081526020018381526020018281525060036000600154815260200190815260200160002060008201518160000155602082015181600101556040820151816002019080519060200190610908929190610e56565b506060820151816003019080519060200190610925929190610e56565b509050506001600081548092919060010191905055507f0ec1a365aeeec255796bf50d7a2a8f24d0d5f5c6ada0167b6c647428d91645826001548383604051808481526020018060200180602001838103835285818151815260200191508051906020019080838360005b838110156109ab578082015181840152602081019050610990565b50505050905090810190601f1680156109d85780820380516001836020036101000a031916815260200191505b50838103825284818151815260200191508051906020019080838360005b83811015610a115780820151818401526020810190506109f6565b50505050905090810190601f168015610a3e5780820380516001836020036101000a031916815260200191505b509550505050505060405180910390a15050565b60015481565b6003602052806000526040600020600091509050806000015490806001015490806002018054600181600116156101000203166002900480601f016020809104026020016040519081016040528092919081815260200182805460018160011615610100020316600290048015610b105780601f10610ae557610100808354040283529160200191610b10565b820191906000526020600020905b815481529060010190602001808311610af357829003601f168201915b505050505090806003018054600181600116156101000203166002900480601f016020809104026020016040519081016040528092919081815260200182805460018160011615610100020316600290048015610bae5780601f10610b8357610100808354040283529160200191610bae565b820191906000526020600020905b815481529060010190602001808311610b9157829003601f168201915b5050505050905084565b60606000808310158015610bcd575060015483105b610bd657600080fd5b610bde610ed6565b600360008581526020019081526020016000206040518060800160405290816000820154815260200160018201548152602001600282018054600181600116156101000203166002900480601f016020809104026020016040519081016040528092919081815260200182805460018160011615610100020316600290048015610ca95780601f10610c7e57610100808354040283529160200191610ca9565b820191906000526020600020905b815481529060010190602001808311610c8c57829003601f168201915b50505050508152602001600382018054600181600116156101000203166002900480601f016020809104026020016040519081016040528092919081815260200182805460018160011615610100020316600290048015610d4b5780601f10610d2057610100808354040283529160200191610d4b565b820191906000526020600020905b815481529060010190602001808311610d2e57829003601f168201915b5050505050815250509050806040015181602001518191509250925050915091565b6000600260146101000a81548160ff021916908315150217905550610d90610d92565b565b60008090505b600154811015610df557600360008281526020019081526020016000206000808201600090556001820160009055600282016000610dd69190610efe565b600382016000610de69190610efe565b50508080600101915050610d98565b506000600181905550565b6001600260146101000a81548160ff021916908315150217905550565b600260009054906101000a900473ffffffffffffffffffffffffffffffffffffffff1681565b600260149054906101000a900460ff1681565b828054600181600116156101000203166002900490600052602060002090601f016020900481019282601f10610e9757805160ff1916838001178555610ec5565b82800160010185558215610ec5579182015b82811115610ec4578251825591602001919060010190610ea9565b5b509050610ed29190610f46565b5090565b6040518060800160405280600081526020016000815260200160608152602001606081525090565b50805460018160011615610100020316600290046000825580601f10610f245750610f43565b601f016020900490600052602060002090810190610f429190610f46565b5b50565b610f6891905b80821115610f64576000816000905550600101610f4c565b5090565b9056fe4f6e6c7920746865206f776e65722063616e2072656769737465722063616e64696461746573456c656374696f6e206e6565647320746f206265207374617274656420696e206f7264657220746f20766f7465a265627a7a72315820c2fe211a8d0d190f18794509df8fc7288af7ed937ca4e4b933d6e91c5eba137e64736f6c63430005100032",
  "source": "pragma solidity ^0.5.16;\r\n\r\ncontract Election {\r\n\r\n    // public variables\r\n    string public name;\r\n    uint public candidatesCount = 0;\r\n    address public owner;\r\n    bool public electionStarted = true;\r\n    mapping(uint => Candidate) public candidates;\r\n\r\n    struct Candidate {\r\n        uint id;\r\n        uint votes;\r\n        string name;\r\n        string party;\r\n    }\r\n\r\n    event CandidateRegistered (\r\n        uint id,\r\n        string name,\r\n        string party\r\n    );\r\n\r\n    event Voted (\r\n        uint targetId\r\n    );\r\n\r\n    modifier onlyOwner() {\r\n        require(msg.sender == owner, \"Only owner can perform this action\");\r\n        _;\r\n    }\r\n\r\n    function registerCandidate(string memory _name, string memory _party) public {\r\n        // check if election is started\r\n        require(electionStarted, \"Election needs to be started in order to vote\");\r\n\r\n        require(msg.sender == owner, \"Only the owner can register candidates\");\r\n\r\n        // check for valid name and party name\r\n        require(bytes(_name).length > 0, \"Candidate name required\");\r\n        require(bytes(_party).length > 0, \"Party name required\");\r\n\r\n        // add to list of candidates\r\n        candidates[candidatesCount] = Candidate(candidatesCount, 0, _name, _party);\r\n        candidatesCount ++;\r\n\r\n        // trigger event\r\n        emit CandidateRegistered(candidatesCount, _name, _party);\r\n    }\r\n\r\n    function vote(uint _id) public {\r\n\r\n        // check if election is started\r\n        require(electionStarted, \"Election needs to be started in order to vote\");\r\n\r\n        // check for valid id\r\n        require(_id >= 0 && _id < candidatesCount);\r\n\r\n        candidates[_id].votes ++;\r\n\r\n        // trigger event\r\n        emit Voted(_id);\r\n    }\r\n\r\n    function getCandidate(uint _id) public view returns (string memory, uint) {\r\n        // check for valid id\r\n        require(_id >= 0 && _id < candidatesCount);\r\n\r\n        Candidate memory c = candidates[_id];\r\n        return (c.name, c.votes);\r\n    }\r\n\r\n    function clearCandidates() public {\r\n    for (uint i = 0; i < candidatesCount; i++) {\r\n        delete candidates[i]; \r\n    }\r\n    candidatesCount = 0; \r\n}\r\n\r\n\r\n    function startElection() public {\r\n        electionStarted = true;\r\n    }\r\n\r\n    function endElection() public {\r\n        electionStarted = false;\r\n        clearCandidates();\r\n    }\r\n\r\n    constructor () public {\r\n        owner = msg.sender;\r\n        name = \"Election\";\r\n    }\r\n}",
  "sourcePath": "C:\\Users\\46707\\Documents\\Solidity\\election\\src\\contracts\\Election.sol",
  "compiler": {
    "name": "solc",
    "version": "0.5.16+commit.9c3226ce.Emscripten.clang"
  },
  "schemaVersion": "3.4.16",
  "updatedAt": "2025-02-12T12:18:12.655Z",
  "networkType": "ethereum",
  "devdoc": {
    "methods": {}
  },
  "userdoc": {
    "methods": {}
  }
}